{
  "_format": "hh-sol-artifact-1",
  "contractName": "Presale",
  "sourceName": "contracts/footbucks_presale.sol",
  "abi": [
    {
      "inputs": [
        {
          "internalType": "address",
          "name": "_presaleTokenAddress",
          "type": "address"
        },
        {
          "internalType": "address",
          "name": "_communityWalletAddress",
          "type": "address"
        },
        {
          "internalType": "uint256",
          "name": "_rewardPercentage",
          "type": "uint256"
        },
        {
          "internalType": "uint256",
          "name": "_launchTimestamp",
          "type": "uint256"
        },
        {
          "internalType": "uint256",
          "name": "_presaleEndTime",
          "type": "uint256"
        }
      ],
      "stateMutability": "nonpayable",
      "type": "constructor"
    },
    {
      "inputs": [],
      "name": "TotalReferralAccumulated",
      "outputs": [
        {
          "internalType": "uint256",
          "name": "",
          "type": "uint256"
        }
      ],
      "stateMutability": "view",
      "type": "function"
    },
    {
      "inputs": [],
      "name": "burnAddress",
      "outputs": [
        {
          "internalType": "address",
          "name": "",
          "type": "address"
        }
      ],
      "stateMutability": "view",
      "type": "function"
    },
    {
      "inputs": [],
      "name": "buyTokens",
      "outputs": [],
      "stateMutability": "payable",
      "type": "function"
    },
    {
      "inputs": [],
      "name": "communityWallet",
      "outputs": [
        {
          "internalType": "address",
          "name": "",
          "type": "address"
        }
      ],
      "stateMutability": "view",
      "type": "function"
    },
    {
      "inputs": [
        {
          "internalType": "address",
          "name": "tokenAddress",
          "type": "address"
        },
        {
          "internalType": "uint256",
          "name": "amount",
          "type": "uint256"
        }
      ],
      "name": "emergencyWithdrawBEP20",
      "outputs": [],
      "stateMutability": "nonpayable",
      "type": "function"
    },
    {
      "inputs": [
        {
          "internalType": "uint256",
          "name": "amount",
          "type": "uint256"
        }
      ],
      "name": "emergencyWithdrawEther",
      "outputs": [],
      "stateMutability": "nonpayable",
      "type": "function"
    },
    {
      "inputs": [],
      "name": "launchTimestamp",
      "outputs": [
        {
          "internalType": "uint256",
          "name": "",
          "type": "uint256"
        }
      ],
      "stateMutability": "view",
      "type": "function"
    },
    {
      "inputs": [
        {
          "internalType": "address",
          "name": "",
          "type": "address"
        }
      ],
      "name": "lockedUntil",
      "outputs": [
        {
          "internalType": "uint256",
          "name": "",
          "type": "uint256"
        }
      ],
      "stateMutability": "view",
      "type": "function"
    },
    {
      "inputs": [],
      "name": "owner",
      "outputs": [
        {
          "internalType": "address",
          "name": "",
          "type": "address"
        }
      ],
      "stateMutability": "view",
      "type": "function"
    },
    {
      "inputs": [],
      "name": "presaleEndTime",
      "outputs": [
        {
          "internalType": "uint256",
          "name": "",
          "type": "uint256"
        }
      ],
      "stateMutability": "view",
      "type": "function"
    },
    {
      "inputs": [],
      "name": "presaleToken",
      "outputs": [
        {
          "internalType": "contract IERC20Upgradeable",
          "name": "",
          "type": "address"
        }
      ],
      "stateMutability": "view",
      "type": "function"
    },
    {
      "inputs": [],
      "name": "pricePerTokenInWei",
      "outputs": [
        {
          "internalType": "uint256",
          "name": "",
          "type": "uint256"
        }
      ],
      "stateMutability": "view",
      "type": "function"
    },
    {
      "inputs": [],
      "name": "referralRewardPercentage",
      "outputs": [
        {
          "internalType": "uint256",
          "name": "",
          "type": "uint256"
        }
      ],
      "stateMutability": "view",
      "type": "function"
    },
    {
      "inputs": [
        {
          "internalType": "uint256",
          "name": "_timestamp",
          "type": "uint256"
        }
      ],
      "name": "setLaunchTimestamp",
      "outputs": [],
      "stateMutability": "nonpayable",
      "type": "function"
    },
    {
      "inputs": [
        {
          "internalType": "uint256",
          "name": "_timestamp",
          "type": "uint256"
        }
      ],
      "name": "setPresaleEndTime",
      "outputs": [],
      "stateMutability": "nonpayable",
      "type": "function"
    },
    {
      "inputs": [
        {
          "internalType": "uint256",
          "name": "_time",
          "type": "uint256"
        }
      ],
      "name": "setVestingTime",
      "outputs": [],
      "stateMutability": "nonpayable",
      "type": "function"
    },
    {
      "inputs": [],
      "name": "unlockTokens",
      "outputs": [],
      "stateMutability": "nonpayable",
      "type": "function"
    },
    {
      "inputs": [
        {
          "internalType": "address",
          "name": "",
          "type": "address"
        }
      ],
      "name": "vestedTokens",
      "outputs": [
        {
          "internalType": "uint256",
          "name": "",
          "type": "uint256"
        }
      ],
      "stateMutability": "view",
      "type": "function"
    },
    {
      "inputs": [],
      "name": "vestingTime",
      "outputs": [
        {
          "internalType": "uint256",
          "name": "",
          "type": "uint256"
        }
      ],
      "stateMutability": "view",
      "type": "function"
    },
    {
      "stateMutability": "payable",
      "type": "receive"
    }
  ],
  "bytecode": "0x60e0604052640165a0bc00600155624f1a0060075534801561002057600080fd5b50604051610f5e380380610f5e83398101604081905261003f9161008a565b60016000556001600160a01b039485166080529290931660a0526002556005919091556006553360c0526100d8565b80516001600160a01b038116811461008557600080fd5b919050565b600080600080600060a086880312156100a257600080fd5b6100ab8661006e565b94506100b96020870161006e565b6040870151606088015160809098015196999198509695945092505050565b60805160a05160c051610e1f61013f60003960008181610266015281816103a9015281816103ff0152818161044c015281816105d6015261069601526000610313015260008181610181015281816108a2015281816109a70152610b6a0152610e1f6000f3fe6080604052600436106101185760003560e01c8063920a253e116100a0578063c7dab43611610064578063c7dab43614610335578063cfa0136f1461034b578063d0febe4c1461036b578063df520efc14610373578063f968f4931461038957600080fd5b8063920a253e14610288578063989727b11461029e5780639bc289f1146102b4578063b77238d5146102e1578063c75748391461030157600080fd5b806365cf7c9b116100e757806365cf7c9b146101e857806370d5ae05146101fe57806380292160146102145780638d4654ba146102345780638da5cb5b1461025457600080fd5b80630918992b14610124578063249b7c191461014657806324ffea1a1461016f5780633dee0397146101bb57600080fd5b3661011f57005b600080fd5b34801561013057600080fd5b5061014461013f366004610c5f565b61039e565b005b34801561015257600080fd5b5061015c60065481565b6040519081526020015b60405180910390f35b34801561017b57600080fd5b506101a37f000000000000000000000000000000000000000000000000000000000000000081565b6040516001600160a01b039091168152602001610166565b3480156101c757600080fd5b5061015c6101d6366004610c94565b60046020526000908152604090205481565b3480156101f457600080fd5b5061015c60055481565b34801561020a57600080fd5b506101a361dead81565b34801561022057600080fd5b5061014461022f366004610c5f565b6103f4565b34801561024057600080fd5b5061014461024f366004610cb6565b610441565b34801561026057600080fd5b506101a37f000000000000000000000000000000000000000000000000000000000000000081565b34801561029457600080fd5b5061015c60025481565b3480156102aa57600080fd5b5061015c60085481565b3480156102c057600080fd5b5061015c6102cf366004610c94565b60036020526000908152604090205481565b3480156102ed57600080fd5b506101446102fc366004610c5f565b6105cb565b34801561030d57600080fd5b506101a37f000000000000000000000000000000000000000000000000000000000000000081565b34801561034157600080fd5b5061015c60075481565b34801561035757600080fd5b50610144610366366004610c5f565b61068b565b6101446106d8565b34801561037f57600080fd5b5061015c60015481565b34801561039557600080fd5b50610144610a86565b336001600160a01b037f000000000000000000000000000000000000000000000000000000000000000016146103ef5760405162461bcd60e51b81526004016103e690610ce0565b60405180910390fd5b600555565b336001600160a01b037f0000000000000000000000000000000000000000000000000000000000000000161461043c5760405162461bcd60e51b81526004016103e690610ce0565b600755565b336001600160a01b037f000000000000000000000000000000000000000000000000000000000000000016146104895760405162461bcd60e51b81526004016103e690610ce0565b6040516370a0823160e01b815230600482015282906001600160a01b038216906370a0823190602401602060405180830381865afa1580156104cf573d6000803e3d6000fd5b505050506040513d601f19601f820116820180604052508101906104f39190610d04565b8211156105395760405162461bcd60e51b8152602060048201526014602482015273496e73756666696369656e742062616c616e636560601b60448201526064016103e6565b60405163a9059cbb60e01b8152336004820152602481018390526001600160a01b0382169063a9059cbb906044016020604051808303816000875af1158015610586573d6000803e3d6000fd5b505050506040513d601f19601f820116820180604052508101906105aa9190610d1d565b6105c65760405162461bcd60e51b81526004016103e690610d3f565b505050565b336001600160a01b037f000000000000000000000000000000000000000000000000000000000000000016146106135760405162461bcd60e51b81526004016103e690610ce0565b4781111561065a5760405162461bcd60e51b8152602060048201526014602482015273496e73756666696369656e742062616c616e636560601b60448201526064016103e6565b604051339082156108fc029083906000818181858888f19350505050158015610687573d6000803e3d6000fd5b5050565b336001600160a01b037f000000000000000000000000000000000000000000000000000000000000000016146106d35760405162461bcd60e51b81526004016103e690610ce0565b600655565b6106e0610bff565b6005544210156107325760405162461bcd60e51b815260206004820152601b60248201527f50726573616c6520686173206e6f74207374617274656420796574000000000060448201526064016103e6565b6006544211156107785760405162461bcd60e51b8152602060048201526011602482015270141c995cd85b19481a185cc8195b991959607a1b60448201526064016103e6565b3467016345785d8a00008110156107d15760405162461bcd60e51b815260206004820152601960248201527f4d696e696d756d2070757263686173653a20302e3120424e420000000000000060448201526064016103e6565b678ac7230489e800008111156108295760405162461bcd60e51b815260206004820152601860248201527f4d6178696d756d2070757263686173653a20313020424e42000000000000000060448201526064016103e6565b6000600154826108399190610d84565b90506000811161088b5760405162461bcd60e51b815260206004820152601760248201527f546f6b656e20616d6f756e7420697320746f6f206c6f7700000000000000000060448201526064016103e6565b6040516370a0823160e01b815230600482015281907f00000000000000000000000000000000000000000000000000000000000000006001600160a01b0316906370a0823190602401602060405180830381865afa1580156108f1573d6000803e3d6000fd5b505050506040513d601f19601f820116820180604052508101906109159190610d04565b101561096f5760405162461bcd60e51b815260206004820152602360248201527f496e73756666696369656e7420746f6b656e7320696e2074686520636f6e74726044820152621858dd60ea1b60648201526084016103e6565b6000606461097e836014610da6565b6109889190610d84565b60405163a9059cbb60e01b8152336004820152602481018290529091507f00000000000000000000000000000000000000000000000000000000000000006001600160a01b03169063a9059cbb906044016020604051808303816000875af11580156109f8573d6000803e3d6000fd5b505050506040513d601f19601f82011682018060405250810190610a1c9190610d1d565b610a385760405162461bcd60e51b81526004016103e690610d3f565b6000610a448284610dc3565b336000908152600460205260409020819055600754909150610a669042610dd6565b3360009081526003602052604090205550610a849250610c58915050565b565b610a8e610bff565b33600090815260036020526040902054421015610ae15760405162461bcd60e51b8152602060048201526011602482015270151bdad95b9cc8185c99481b1bd8dad959607a1b60448201526064016103e6565b33600090815260046020526040812054906064610aff836014610da6565b610b099190610d84565b905060075442610b199190610dd6565b33600090815260036020526040902055610b338183610dc3565b33600081815260046020819052604091829020939093555163a9059cbb60e01b815291820152602481018290526001600160a01b037f0000000000000000000000000000000000000000000000000000000000000000169063a9059cbb906044016020604051808303816000875af1158015610bb3573d6000803e3d6000fd5b505050506040513d601f19601f82011682018060405250810190610bd79190610d1d565b610bf35760405162461bcd60e51b81526004016103e690610d3f565b5050610a846001600055565b600260005403610c515760405162461bcd60e51b815260206004820152601f60248201527f5265656e7472616e637947756172643a207265656e7472616e742063616c6c0060448201526064016103e6565b6002600055565b6001600055565b600060208284031215610c7157600080fd5b5035919050565b80356001600160a01b0381168114610c8f57600080fd5b919050565b600060208284031215610ca657600080fd5b610caf82610c78565b9392505050565b60008060408385031215610cc957600080fd5b610cd283610c78565b946020939093013593505050565b6020808252600a908201526927b7363c9037bbb732b960b11b604082015260600190565b600060208284031215610d1657600080fd5b5051919050565b600060208284031215610d2f57600080fd5b81518015158114610caf57600080fd5b602080825260159082015274151bdad95b881d1c985b9cd9995c8819985a5b1959605a1b604082015260600190565b634e487b7160e01b600052601160045260246000fd5b600082610da157634e487b7160e01b600052601260045260246000fd5b500490565b8082028115828204841417610dbd57610dbd610d6e565b92915050565b81810381811115610dbd57610dbd610d6e565b80820180821115610dbd57610dbd610d6e56fea2646970667358221220affa5f1ed49dfb7f1571c9d17fc57d7b610df7eb11cc6f23480fa7bbb72a326b64736f6c63430008130033",
  "linkReferences": {},
  "deployedLinkReferences": {}
}